:020000000C945E
:1000020034000C9400000C9400000C9400000C943A
:1000120000000C9400000C9400000C9400000C945E
:1000220000000C9400000C9400000C9400000C944E
:1000320000000C9400000C9400000C9400000C943E
:1000420051000C9400000C9400000C9400000C94DD
:1000520000000C9400000C9400000C9400000C941E
:1000620000000C940000F894EE27EFBBF1E0F5BF1E
:10007200E5BF8DE0A2E0BB27ED938A95E9F780E02A
:1000820098E0A0E0B1E0ED930197E9F7E0E0EEBB84
:10009200EFEFEDBFE8E0EEBFC0E0D3E00C9460000C
:1000A200EA93EFB7EA93EEEEE6BDE0E0EBB9E42DBA
:1000B200E095EBB94BB0E991EFBFE9911895E0E01B
:1000C200EBB9539A529AEBB9E1E0E5BDEEEFE6BD2A
:1000D2005A9A4BB0E1E0E0936E007894FFCFFFCFE5
:00000001FF
