:0A0000000C9434000C9400000C94E2
:10000A0000000C9400000C9400000C9400000C9466
:10001A0000000C9400000C9400000C9400000C9456
:10002A0000000C9400000C9400000C9400000C9446
:10003A0000000C9400000C9400000C9400000C9436
:10004A0000000C9400000C9400000C9400000C9426
:10005A0000000C9400000C9400000C940000F8942A
:10006A00EE27EFBBF1E0F5BFE5BF8DE0A2E0BB27CD
:10007A00ED938A95E9F780E098E0A0E0B1E0ED938E
:10008A000197E9F7E0E0EEBBEFEFEDBFE8E0EEBF86
:10009A00C0E0D3E00C945100539A529AE3E2E09301
:1000AA00B000E9E0E093B100E0E0E093B200EFE4F1
:1000BA00E093B300EFE0E093B4007894FFCFFFCF72
:00000001FF
