:060000000C940C010C94AD
:1000060000000C9400000C9400000C9400000C946A
:1000160000000C9400000C9400000C9400000C945A
:1000260000000C9400000C9400000C9400000C944A
:1000360000000C9400000C9400000C9400000C943A
:1000460000000C9400000C9400000C9400000C942A
:1000560000000C9400000C9400000C9400000C941A
:1000660000006400C80090012003F8FFFCFFFEFFBB
:10007600FFFF4C4F4144494E472E2E2E0054656DCE
:10008600702E20636F6E74726F6C20726561647976
:10009600004572726F723A2025752074656D702E58
:1000A60073656E736F72287329206E6F7420666F86
:1000B600756E6400496E6974206572726F7220668F
:1000C6006F72206465766963652023257500742840
:1000D60046455473293D202025692043007428573E
:1000E60061746572293D2025692043005741524DB0
:1000F6002D555020494E2050524F47524553532EAE
:100106002E2E004572726F723A204175746F2D4122
:100116006A757374204661696C6564004572726F16
:10012600723A20537570706C7920556E6465722D25
:10013600566F6C74616765004572726F723A20463D
:10014600455473206F7665722D686561740045723B
:10015600726F723A20436F6F6C696E6720576174D5
:100166006572206F7665722D686561740074656DC1
:10017600703A202569432846455473292C20256961
:100186004328576174657229004572726F723A206E
:100196004E65656420746F206D616E75616C2061BB
:1001A6006A7573746D656E7400746F6B3A2025758D
:1001B6002C204F435232423A202575005741524D6A
:1001C6002D5550205355434345535300506C61639E
:1001D600652073616D706C6520696E746F20696E41
:1001E600647563746F7220696E20313020736563A5
:1001F6006F6E6473004D656C74696E67206F76650B
:100206007274696D652E205475726E2D4F66662E5A
:100216000000F894EE27EFBBF1E0F5BFE5BF8DE0F7
:10022600A2E0BB27ED938A95E9F780E098E0A0E08D
:10023600B1E0ED930197E9F7E0E0EEBBEFEFEDBF3C
:10024600E8E0EEBFC0E0D3E00C947301AA932497D4
:10025600E0E0E883E983EA83EB831A930A93EE816D
:10026600E064E0937C0085E38A95F1F701E010E015
:100276000436E0E01E0714F00C946501E0917A0064
:10028600E064E0937A00E0917A00E07111F00C945A
:100296004D01F9CFE0917A00E061E0937A00E091B8
:1002A6007800F0917900AA81BB818C819D816627B7
:1002B60077270E943C09EA83FB836C837D830F5F6B
:1002C6001F4FD6CFAA81BB818C819D81E4E6F0E0E9
:1002D60060E070E00E945B09198108812796089505
:1002E600229700E010E05D9A5C9A559A549A539AC8
:1002F600529A259A239A209A2898E3EAE093B00026
:10030600E6E0E093B100E0E0E093B200E093B400F1
:10031600E2E3E093B300EEE3E0937E00E7E8E093E8
:100326007A00E8E0E093C100E6E0E093C200E7E689
:10033600E093C400E0E0E093B400E8E7F0E00E9458
:10034600F106E0EFEA93A9E0B3E00E94D107E88363
:10035600A881A23011F00C94B701E3E8F0E00E9406
:10036600F8060E94010710C0E7E9F0E00E94F806CF
:10037600EE81F0E0A2E0B0E00E949A09EA1BFB0BD6
:100386000E9406070E940B0700E010E0E881D801F2
:10039600F0E0AE17BF0710F00C94F201F8010F5F02
:1003A6001F4FA9E0B0E00E945309E75FFC4FFA93A4
:1003B600EA93E4E1EA93EEE1EA93A0E00E940C04FA
:1003C600E03011F00C94F101EAEBF0E0FA93EA93D5
:1003D600F8010E9410070E940107FFCFD7CF00E067
:1003E60010E00330E0E01E0710F00C9403020E94B8
:1003F60015072D9A0E9415072D980F5F1F4FF1CFF5
:100406005D98E4EDF0E0FA93EA930E9419076627F7
:1004160077270E9406070E940107E3EEF0E0FA93B1
:10042600EA930E942007662777270E9406070E9404
:1004360001070E9415075C98E2EFF0E00E94F106C2
:1004460078940A35E0E01E0710F00C94C5020F5FA1
:100456001F4F0E942707EEE1F0E0E315F40510F0C8
:100466000C944302EBE3F1E03E164F0610F00C94B9
:100476004302A091B400AE3610F00C94430201C0C2
:100486001BC0A4EBB0E0EC91EF5FEC93532C642C13
:100496000E9427073514460410F00C9453028394E7
:1004A600E5E0E81510F00C945E020E942D070E940C
:1004B60015075C9AFFCFCFCF8824E5E4F1E0E3157A
:1004C600F40510F00C946E02A091B400A03010F464
:1004D6000C946E0201C01BC0A4EBB0E0EC91E1509D
:1004E600EC93532C642C0E9427075314640410F0D9
:1004F6000C947E028394E5E0E81510F00C948902D2
:100506000E942D070E9415075C9AFFCFD6CF88243C
:10051600EEE1F0E03E164F0610F00C949D02E0E08E
:10052600E093B400E2E2F1E00E94F1060E941507B2
:100536005C9AFFCF0E9419079F010E942007AF0116
:100546002D33E0E03E0710F40C94B0020E9433070E
:100556005C9AEEE3F1E00E94F1064734E0E05E07C4
:1005660010F40C94BD020E9433075C9AE4E5F1E0B6
:100576000E94F1060E943707FA010E9410070E94A6
:100586000B075FCFA091B400AE3110F40C94D202E9
:10059600A091B400A93C10F00C94D2020BC0E0E08C
:1005A600E093B400EFE8F1E00E94F1060E9415071F
:1005B6005C9AFFCFEFEAF1E0FA93EA93E32DF42D8C
:1005C6000E941007E091B400FF27662777270E9454
:1005D60095090E940B07A2E3B0E00E947407E2ECC3
:1005E600F1E00E94F106E0EFF0E0E315F40510F00B
:1005F6000C940403A091B400A03010F40C940403EE
:1006060001C008C0A4EBB0E0EC91E150EC930E946D
:100616002707E9CFE2EDF1E00E94F10600E010E0E5
:100626000A35E0E01E0710F00C9447030F5F1F4FDA
:100636000E9419079F010E942007AF012D33E0E0B9
:100646003E0710F40C942E030E9433075C9AEEE3E7
:10065600F1E00E94F1064734E0E05E0710F40C94E6
:100666003B030E9433075C9AE4E5F1E00E94F10641
:100676000E943707FA010E9410070E940B07ACEB95
:10068600B2E00E947407CCCFE0E0E093B400EBEF59
:10069600F1E00E94F1060E9415075C9A2296FFCFB0
:1006A600BA93AA931A930E947E07E03011F00C9435
:1006B6006003E0E0188123960895E981FA81309776
:1006C60011F40C947903A5E50E94C70710E0A981EF
:1006D600BA81ED91A983BA83AE2F0E94C7071F5F27
:1006E600183010F00C947803F2CF03C0ACEC0E94E3
:1006F600C707E1E0188123960895BA93AA930E944A
:10070600A709AC81BD810E945303E03011F00C941F
:100716009103E0E00E94AE0926960895AEEB0E9492
:10072600C70710E020E033E03F932F932F5F3F4F42
:100736000E94C207AF91BF91EC931F5F193010F072
:100746000C94A603F1CFE0E0F3E0FA93EA93A9E074
:100756000E9440080E944E090E94AE0926960895FE
:10076600BA93AA931A93A981BA810E948003E030B2
:1007760011F00C94C1030E943D070895E091040313
:10078600E295EF70E695E3701E2FA981BA810E946B
:100796005303E03011F00C94D3030E943D070895F3
:1007A600A4E40E94C707E12FA8E6B0E0F0E0EE0F50
:1007B600FF1FEA0FFB1F0E9492090E947407A9817E
:1007C600BA810E948003E03011F00C94ED030E9480
:1007D6003D0708950E947E07E12FA0E7B0E0F0E014
:1007E600EE0FFF1FEA0FFB1F0E948E09A091000368
:1007F600B0910103EA23FB230E9449090E94BC0829
:10080600A0E0B0E080E89DE30E94EA081881239604
:100816000895AA93AB81BC810E945303E03011F086
:100826000C941804E0E025960895E881E295E07FAF
:10083600EE0FEF61E883AEE40E94C707A9810E942C
:10084600C707AA810E94C707A8810E94C707AB8174
:10085600BC810E948003E03011F00C943504E0E086
:1008660025960895A0910303EA81EA1711F00C94E6
:100876004B04A0910203E981EA1711F00C944B0492
:10088600A0910403E881EA1711F00C944B0403C00D
:10089600E0E025960895AB81BC810E945303E030C9
:1008A60011F00C945904E0E025960895A8E40E94FE
:1008B600C707AFE0B0E00E9474070E947E07259646
:1008C6000895AA93E091C000E07211F00C946C04B4
:1008D600F9CFE881E093C60021960895BA93AA93CA
:1008E600AA810E946404A881B981ED91FD91319697
:1008F600FE93EE9323960895BA93AA932C970E949B
:10090600A50910E0AA89BB89E0E0F0E0ED93FC932D
:10091600E88DF98D3196E88FF98F3197E4912E2F76
:10092600E03011F40C94AA06E12FE03011F00C949B
:10093600A504253211F00C94A20411E002C00E9415
:10094600440704C2E13011F00C94CA04253211F0B8
:100956000C94B1040E94440710E0F8C112E0E0E0F4
:10096600E98B00E02D3211F00C94BB0401E0EEC1DE
:100976002B3211F00C94C204EBE2E98BE7C1203272
:1009860011F00C94C904E0E2E98BE0C104C0E23046
:1009960011F00C94D70450E013E0203311F00C94BE
:1009A600D6040068D3C104C0E33011F00C94F504FA
:1009B600203310F40C94E4042A3310F00C94E4046D
:1009C60001C007C0AAE05A9F502DE22FE0535E0FE8
:1009D600BDC140E02E3211F00C94F30414E0B6C110
:1009E60016C004C0E43011F00C941205203310F444
:1009F6000C9402052A3310F00C94020501C007C0BE
:100A0600AAE04A9F402DE22FE0534E0F9FC12C369D
:100A160011F00C941105026015E098C104C0E53090
:100A260011F00C94A906E22FE33611F00C9425057B
:100A36000E944B07EE89FF89A481AA930E94510761
:100A460084C104C0E33711F00C9432050E944B07B1
:100A56000E9457070E94D8061E2F0DC004C0E0371B
:100A660011F00C9450050E944B070E9457070E94F4
:100A7600E4061E2F08600F77403011F40C944805E9
:100A8600411710F00C94480501C001C0142F40E036
:100A9600E0E0E88B30E089C004C0E43611F00C9445
:100AA600550504C0E93611F00C945B05046004C0DA
:100AB600E53711F00C947405EAE0E88B01FF08C0F5
:100AC600E0E0FAEC6AE97BE30E9461071AE026C0DF
:100AD600E0E1F7E260E070E00E94610715E01EC009
:100AE60004C0E83511F00C947A05086004C0E837B4
:100AF60011F00C94A806E0E1E88B01FF08C0E0E0E5
:100B0600F0E060E070E10E94610718E007C0E0E0F5
:100B1600F0E160E070E00E94610714E0403011F4FB
:100B26000C9497050F7701C041E001FF0AC00E94AF
:100B36004B07AE89BF8914960E9488090E946607F2
:100B460019C002FF0CC00E944B07AE89BF891496DC
:100B56000E9484090E9449090E9466070BC00E94F0
:100B66004B07AE89BF8914960E94840966277727AA
:100B76000E94660702FF18C0AF85AA2312F00C94E4
:100B8600CE05EC85FD856E857F850E9441090E9414
:100B96006607EDE2E98BE989E03011F40C94D6059D
:100BA6001F5F4F5F01C00B7F342F00FD19C0151763
:100BB60010F00C94E305351710F00C94E30501C012
:100BC6000FC007FF08C002FF04C00B7F2989115020
:100BD60001C020E301C020E20E9444075150E7CF44
:100BE600141710F00C941106006102FF0CC00B7F65
:100BF600E989EA930E945107503011F40C940406D7
:100C0600515011504150E0E3EA930E945107503091
:100C160011F40C940F0651504150E2CF312FE88960
:100C2600E03011F00C943206303011F40C94310699
:100C360003FF06C0EE81FF812591EE83FF8305C089
:100C4600AE81BF812D91AE83BF830E944407503091
:100C560011F40C942F0651503150E6CF6AC00E9411
:100C66006B070E945B092E2F2A3010F40C94410664
:100C760003FF02C0295C01C0295A01C0205D04FFA0
:100C860001C033C0213310F00C945806A885B985ED
:100C96008A859B85A130E0E0BE07E0E08E07E0E0B4
:100CA6009E0711F40C94580601C012C0431710F4A5
:100CB6000C945F0620E30CC0531710F40C946606E0
:100CC60000FD01C001C018C020E207FF0EC020E3EE
:100CD600006102FF0AC00B7FE989EA930E9451076F
:100CE600503011F40C94780651500E94440750304D
:100CF60011F40C947F06515031500E946B070E94EC
:100D060080090E946607E889A885B9858A859B853A
:100D1600FF27662777270E945B090E946107E885FF
:100D2600F9856A857B850E94A10911F40C949C06BD
:100D360096CF00FF0AC0503011F40C94A80651500B
:100D4600E0E2EA930E945107F6CF10E0E1CDAA89CE
:100D5600BB890E9484090E94AC096A960895FF9295
:100D6600F82E26971A930A93DE0114960E943809E4
:100D76008D01E0E0EC83ED83EE83EF83DE011896D0
:100D86000E9438090E948409FA93EA931A930A93F7
:100D9600E1E7F4E0FA93EA93DE0118960E947F04F5
:100DA600198108812896FF900895BA93AA93A9916C
:100DB600B991EE27FF276D91662311F03196FBCF8F
:100DC6000895BA93AA93AA27BB27E991F9910590AA
:100DD600002011F01196FBCFFD010895FA93EA93D6
:100DE60080E00E94B20622960895FA93EA93EA8179
:100DF600FF27662777270E949509089584E00E94B9
:100E0600B206269608950E9449090E9495090895FA
:100E160088E00E94B2062A960895662777270E94E0
:100E260095090895A4EFB1E00C947407A9E0B3E026
:100E36000E94B3030E9485080895A2E1B3E00E94D0
:100E4600B3030E9485080895A0E00E9429013E2E62
:100E56004F2E0895E0E0E093B400E9E0F1E0BECF64
:100E6600E0E0E093B400DECFE3E7F1E0FA93EA9343
:100E7600F901D3CFE0E0FCE36CE176EC1881239630
:100E860008952A93AB89BC89ED89FE890995089551
:100E9600EE89FF893497EE8BFF8B0895AB89BC8969
:100EA600ED89FE8909950895AE89BF8914960E9439
:100EB6008409EE83FF83AE81BF810895E887F987B1
:100EC6006A877B870895EC87FD876E877F870895FD
:100ED600E885F9856A857B85AC85BD858E859F8588
:100EE6000895109639F080EA9FE00197F1F7A895EA
:100EF6001197C9F70895EE275E98569A80E897E00D
:100F06000197F1F756988BE48A95F1F74E9B089571
:100F160080E391E00197F1F74E9BE1E088E196E0EE
:100F26000197F1F70895569A8BE08A95F1F756984E
:100F36008BE38A95F1F788944E990894E79580E4B7
:100F460091E00197F1F70895E894569A8BE08A9517
:100F5600F1F770FD569885E48A95F1F74E9903C02E
:100F660070FF03C0089570FF08958CE291E0019729
:100F7600F1F756988BE18A95F1F76894089568E041
:100F8600D2DF6A95E9F708957A2F68E0EE27DCDF6D
:100F960026F477956A95D9F7E39508954F935F936D
:100FA60011244427012C1124A6DFEE2301F1AF936F
:100FB600A881EADFAF9151E0501598F4B4DFE7FD60
:100FC60008C0B1DFE7FD06C03FD0892319F4152E0E
:100FD60001C0A9DF39D0892370E009F071E0B4DFE0
:100FE6001EC0A1DFE7FF0BC09EDFE7FF05C0E42FB1
:100FF6005F914F9121960895689437D0EFCF93DF94
:10100600E7FF01C003C0501531F0152EE8942DD02E
:1010160077279ADF04C0689428D071E095DF53954E
:10102600513454F280DFEE1FEE1FE1701896EC93F8
:10103600189743951120D9F259E0EC911996EC9343
:1010460018975A95D1F7AECFE52FEA956E2FE6950C
:10105600E695E695FF27EA0FFB1F808191E0677012
:1010660019F0990F6A95FCCF0895EEDF1EF0909562
:10107600892301C0892B80830895EE27AA2389F04E
:101086008A2F68E1A881B98198E0FD917F2F7E279C
:10109600779508F4E627E795F6959A95B9F78A9530
:1010A60099F722960895552342F4503811F4E0FF3B
:1010B60004C03196691F791F6BF050E8572711F469
:1010C6005F9373C05F3F31F0660F000C57956795CD
:1010D600752F08955F9300200AF073C06CC050E826
:1010E600192E1522880F991F9527550F879550E8B9
:1010F600072E0522660F771F7527550F67950895EA
:10110600689401C0E8945F93F2DF703818F07F3F6F
:1011160008F44BC056E1571BAAF4519558300EF40B
:10112600593030F0EFEFFFEF6FEF7FE777F91AC036
:1011360077275523B9F0EE0FFF1F661F771F5A95C5
:10114600D1F710C07727583028F0EF2FF62F672FEA
:101156005850F9CF552331F076956795F795E79571
:101166005A95D1F700200AF489D05F9108956894C2
:1011760001C0E894309760407040B1F0002426F03A
:10118600772312F400947AD0172E7EE1112032F0E4
:101196007A95EE0FFF1F661F111CF9CFEF2FF62F62
:1011A600612D5F938ADF5F910895EE27FF276627FB
:1011B60077275F910895EFEFFFEF6FE77FEF5F917E
:1011C6000895EFEFFFEF6FE77FE75F9108955F9375
:1011D60086DF703851F3903841F301240894791F63
:1011E60023F41CF300203AF3ECCF0F921F932F93B6
:1011F6003F934F93112722279927689FA0018F9F1E
:10120600302D410D591F6B9F300D411D591F8E9F6B
:1012160027D0BF9F25D06A9F23D0BE9F1DD0AF9FEA
:101226001BD0AE9F110D291F391F491F591FE32FD0
:10123600F42F652F522F4F913F912F911F910F90B1
:1012460066232AF0550FEE1FFF1F661F02C0739517
:101256004BF229DF5F910895100D211D391F02C041
:10126600200D311D491F591F08950024AF0DB01DD3
:101276000895EA0FFB1F681F791F0895F095609582
:101286007095E195FF4F6F4F7F4F08956F2F660F53
:10129600660B762F0895EE23E1E009F0EE27089518
:1012A600FA9FF02DEB9FF00DEA9FE02DF10D0895CA
:1012B6003F934F935F93002411244427552730E230
:1012C600AA0FBB1F881F991F001C111C441F551F06
:1012D6000E1A1F0A460B570B28F40E0E1F1E461F2A
:1012E600571F01C0A1603A9559F7FD01BC01D00115
:1012F600CA015F914F913F910895DADFFD01BC016C
:101306000895ED91FC9111970895ED91FD916D91E0
:101316007C91139708950590F491E02D0895A59179
:10132600B49108957A936A93FA93EA9308951B2EDB
:10133600BF2FF12D1A2EAE2FE12D08953097604064
:10134600704008955A934A933A932A931A930A93AC
:1013560008955D814C813B812A8119810881089518
:00000001FF
