:060000000C9434000C9486
:1000060000000C9400000C9400000C9400000C946A
:1000160051000C9400000C9400000C9400000C9409
:1000260000000C9400000C9400000C9400000C944A
:1000360000000C9400000C9400000C9400000C943A
:1000460000000C9400000C9400000C9400000C942A
:1000560000000C9400000C9400000C9400000C941A
:100066000000F894EE27EFBBF1E0F5BFE5BF8DE0A9
:10007600A2E0BB27ED938A95E9F780E098E0A0E03F
:10008600B1E0ED930197E9F7E0E0EEBBEFEFEDBFEE
:10009600E8E0EEBFC0E0D3E00C9480008A939A9328
:1000A600AA93BA93EA93EFB7EA934C9919C04D9B7A
:1000B6000AC0A091B400A13028F0A4EBB0E0EC9106
:1000C600E150EC9309C0A091B400AF3F28F4A4EB33
:1000D600B0E0EC91EF5FEC9380E496E00197F1F7E6
:1000E6004C9B02C04D9901C0FBCFE991EFBFE9914E
:1000F600B991A99199918991189501E010E0539AC7
:10010600529A259A559854985D9A5C9AE3E2E09340
:10011600B000E9E0E093B100E0E0E093B200EFEF79
:10012600E093B300E4E1E093B400E4E0E093680018
:10013600E0E1E0936D00E4E0EBBB7894FECFFFCF07
:00000001FF
