:040000000C94340028
:100004000C9400000C9400000C9400000C9400006C
:100014000C9400000C9400000C9400000C9400005C
:100024000C9400000C9400000C9400000C9400004C
:100034000C9400000C9400000C9400000C9400003C
:100044000C9400000C9400000C9400000C9400002C
:100054000C9400000C9400000C9451000C940000CB
:100064000C940000F894EE27EFBBF1E0F5BFE5BF78
:100074008DE0A2E0BB27ED938A95E9F780E098E054
:10008400A0E0B1E0ED930197E9F7E0E0EEBBEFEF1C
:10009400EDBFE8E0EEBFC0E0D3E00C945D008A93CE
:1000A400EA93EFB7289A83E08A95F1F72898EFBF8F
:1000B400E9918991189501E010E0539A529A259A92
:1000C400559854985D9A5C9A209A2898E3E2E093B4
:1000D400B000E9E0E093B100E0E0E093B200EFEFBC
:1000E400E093B300E4E1E093B400E4E0E09368005B
:1000F400E0E1E0936D00E4E0EBBBEBE0E0BFE0E0C7
:10010400E0937B00E3E0E0937F007894FECFFFCFA1
:00000001FF
