:080000000C9434000C94000084
:100008000C9400000C9400000C9400000C94000068
:100018000C9400000C9400000C9400000C94000058
:100028000C9400000C9400000C9400000C94000048
:100038000C9400000C9400000C9400000C94000038
:100048000C9400000C9400000C9400000C94000028
:100058000C9400000C9400000C9400000C94000018
:10006800F894EE27EFBBF1E0F5BFE5BF8DE0A2E025
:10007800BB27ED938A95E9F780E098E0A0E0B1E02E
:10008800ED930197E9F7E0E0EEBBEFEFEDBFE8E0B5
:10009800EEBFC0E0D3E00C94510001E010E0539AA9
:1000A800529A259A559854985D9A5C9AE3E2E0939F
:1000B800B000E9E0E093B100E0E0E093B200EFEFD8
:1000C800E093B300E4E1E093B400E4E0E093680077
:1000D800E0E1E0936D00E4E0EBBB7894FECFFFCF66
:00000001FF
